{
    "contractName": "HotelRoom",
    "abi": [
        {
            "inputs": [],
            "stateMutability": "nonpayable",
            "type": "constructor"
        },
        {
            "anonymous": false,
            "inputs": [
                {
                    "indexed": false,
                    "internalType": "address",
                    "name": "_occupant",
                    "type": "address"
                },
                {
                    "indexed": false,
                    "internalType": "uint256",
                    "name": "_value",
                    "type": "uint256"
                }
            ],
            "name": "Occupy",
            "type": "event"
        },
        {
            "inputs": [
                {
                    "internalType": "uint256",
                    "name": "value",
                    "type": "uint256"
                }
            ],
            "name": "bookRoom",
            "outputs": [
                {
                    "internalType": "string",
                    "name": "",
                    "type": "string"
                }
            ],
            "stateMutability": "nonpayable",
            "type": "function"
        },
        {
            "inputs": [],
            "name": "currentStatus",
            "outputs": [
                {
                    "internalType": "enum HotelRoom.Statuses",
                    "name": "",
                    "type": "uint8"
                }
            ],
            "stateMutability": "view",
            "type": "function"
        },
        {
            "inputs": [],
            "name": "owner",
            "outputs": [
                {
                    "internalType": "address payable",
                    "name": "",
                    "type": "address"
                }
            ],
            "stateMutability": "view",
            "type": "function"
        }
    ],
    "bytecode": "608060405234801561001057600080fd5b506000805460ff196101003302166001600160a81b03199091161790556102548061003c6000396000f3fe608060405234801561001057600080fd5b50600436106100415760003560e01c80635f49d3d8146100465780638da5cb5b1461006f578063ef8a92351461009f575b600080fd5b61005961005436600461018f565b6100b9565b60405161006691906101a8565b60405180910390f35b6000546100879061010090046001600160a01b031681565b6040516001600160a01b039091168152602001610066565b6000546100ac9060ff1681565b60405161006691906101f6565b60008054600160ff19909116178082556040516060929182916101009091046001600160a01b03169085908381818185875af1925050503d806000811461011c576040519150601f19603f3d011682016040523d82523d6000602084013e610121565b606091505b5091509150600161013157600080fd5b60408051338152602081018690527fba951166d42eb077151bdecb7cf6027562f04f0143b0c141b1bb0a33eef5d693910160405180910390a15050604080518082019091526006815265109bdbdad95960d21b602082015292915050565b6000602082840312156101a157600080fd5b5035919050565b600060208083528351808285015260005b818110156101d5578581018301518582016040015282016101b9565b506000604082860101526040601f19601f8301168501019250505092915050565b602081016002831061021857634e487b7160e01b600052602160045260246000fd5b9190529056fea2646970667358221220d38c1d671d2d2134911cbbad200bf7ac22f0e5f257cfa4fa0e9710f04fce356d64736f6c63430008110033",
    "sourcePath": "c:/Users/Deepak Prakash/source/repos/CSE6324-Smart-Contracts/NethereumPOC/NethereumPOC/Contracts/Hotel/hotelBooking.sol",
    "compiler": {
        "name": "solc",
        "version": "0.8.17+commit.8df45f5f"
    },
    "functionHashes": {
        "bookRoom(uint256)": "5f49d3d8",
        "currentStatus()": "ef8a9235",
        "owner()": "8da5cb5b"
    },
    "gasEstimates": {
        "creation": {
            "codeDepositCost": "119200",
            "executionCost": "24423",
            "totalCost": "143623"
        },
        "external": {
            "bookRoom(uint256)": "infinite",
            "currentStatus()": "2373",
            "owner()": "2348"
        }
    }
}