{
    "contractName": "test",
    "abi": [
        {
            "inputs": [
                {
                    "internalType": "int256",
                    "name": "multiplier",
                    "type": "int256"
                }
            ],
            "stateMutability": "nonpayable",
            "type": "constructor"
        },
        {
            "inputs": [
                {
                    "internalType": "int256",
                    "name": "val",
                    "type": "int256"
                }
            ],
            "name": "multiply",
            "outputs": [
                {
                    "internalType": "int256",
                    "name": "d",
                    "type": "int256"
                }
            ],
            "stateMutability": "payable",
            "type": "function"
        }
    ],
    "bytecode": "608060405234801561001057600080fd5b5060405161014038038061014083398101604081905261002f91610037565b600055610050565b60006020828403121561004957600080fd5b5051919050565b60e28061005e6000396000f3fe608060405260043610601c5760003560e01c80631df4f144146021575b600080fd5b6030602c3660046054565b6042565b60405190815260200160405180910390f35b60008054604e90836082565b92915050565b600060208284031215606557600080fd5b5035919050565b634e487b7160e01b600052601160045260246000fd5b80820260008212600160ff1b84141615609b57609b606c565b8181058314821517604e57604e606c56fea2646970667358221220ae67f0cd9e5bf03dc4c5b1ebf314065509ef9f75dc4dad472a11643bdfa47fee64736f6c63430008110033",
    "sourcePath": "c:/Users/Deepak Prakash/source/repos/NethereumPOC/NethereumPOC/Contracts/test.sol",
    "compiler": {
        "name": "solc",
        "version": "0.8.17+commit.8df45f5f"
    },
    "functionHashes": {
        "multiply(int256)": "1df4f144"
    },
    "gasEstimates": {
        "creation": {
            "codeDepositCost": "45200",
            "executionCost": "infinite",
            "totalCost": "infinite"
        },
        "external": {
            "multiply(int256)": "infinite"
        }
    }
}